{
  "contractName": "AttendanceRegister",
  "abi": [
    {
      "anonymous": false,
      "inputs": [
        {
          "indexed": false,
          "internalType": "string",
          "name": "name",
          "type": "string"
        },
        {
          "indexed": false,
          "internalType": "uint256",
          "name": "class",
          "type": "uint256"
        }
      ],
      "name": "Added",
      "type": "event"
    },
    {
      "inputs": [
        {
          "internalType": "uint256",
          "name": "",
          "type": "uint256"
        }
      ],
      "name": "register",
      "outputs": [
        {
          "internalType": "string",
          "name": "name",
          "type": "string"
        },
        {
          "internalType": "uint256",
          "name": "class",
          "type": "uint256"
        }
      ],
      "stateMutability": "view",
      "type": "function"
    },
    {
      "inputs": [
        {
          "internalType": "uint256",
          "name": "rollNumber",
          "type": "uint256"
        },
        {
          "internalType": "string",
          "name": "name",
          "type": "string"
        },
        {
          "internalType": "uint256",
          "name": "class",
          "type": "uint256"
        }
      ],
      "name": "add",
      "outputs": [
        {
          "internalType": "uint256",
          "name": "",
          "type": "uint256"
        }
      ],
      "stateMutability": "nonpayable",
      "type": "function"
    },
    {
      "inputs": [
        {
          "internalType": "uint256",
          "name": "rollNumber",
          "type": "uint256"
        }
      ],
      "name": "getStudentName",
      "outputs": [
        {
          "internalType": "string",
          "name": "",
          "type": "string"
        }
      ],
      "stateMutability": "view",
      "type": "function"
    }
  ],
  "bytecode": "0x608060405234801561001057600080fd5b506108af806100206000396000f3fe608060405234801561001057600080fd5b50600436106100415760003560e01c806344e3e6ad146100465780639ac4387614610076578063f207564e146100a6575b600080fd5b610060600480360381019061005b91906105a0565b6100d7565b60405161006d919061061e565b60405180910390f35b610090600480360381019061008b9190610639565b61021a565b60405161009d91906106ee565b60405180910390f35b6100c060048036038101906100bb9190610639565b6102c1565b6040516100ce929190610710565b60405180910390f35b600080821180156100e95750600c8211155b610128576040517f08c379a000000000000000000000000000000000000000000000000000000000815260040161011f9061078c565b60405180910390fd5b60008060008681526020019081526020016000206001015414610180576040517f08c379a0000000000000000000000000000000000000000000000000000000008152600401610177906107f8565b60405180910390fd5b600060405180604001604052808581526020018481525090508060008087815260200190815260200160002060008201518160000190805190602001906101c892919061036d565b50602082015181600101559050507f63773503add4bdf1144e8f986f9d2af7c1752c8ceabfc6826a94fb6518d7d8c58484604051610207929190610710565b60405180910390a1849150509392505050565b6060600080838152602001908152602001600020600001805461023c90610847565b80601f016020809104026020016040519081016040528092919081815260200182805461026890610847565b80156102b55780601f1061028a576101008083540402835291602001916102b5565b820191906000526020600020905b81548152906001019060200180831161029857829003601f168201915b50505050509050919050565b60006020528060005260406000206000915090508060000180546102e490610847565b80601f016020809104026020016040519081016040528092919081815260200182805461031090610847565b801561035d5780601f106103325761010080835404028352916020019161035d565b820191906000526020600020905b81548152906001019060200180831161034057829003601f168201915b5050505050908060010154905082565b82805461037990610847565b90600052602060002090601f01602090048101928261039b57600085556103e2565b82601f106103b457805160ff19168380011785556103e2565b828001600101855582156103e2579182015b828111156103e15782518255916020019190600101906103c6565b5b5090506103ef91906103f3565b5090565b5b8082111561040c5760008160009055506001016103f4565b5090565b6000604051905090565b600080fd5b600080fd5b6000819050919050565b61043781610424565b811461044257600080fd5b50565b6000813590506104548161042e565b92915050565b600080fd5b600080fd5b6000601f19601f8301169050919050565b7f4e487b7100000000000000000000000000000000000000000000000000000000600052604160045260246000fd5b6104ad82610464565b810181811067ffffffffffffffff821117156104cc576104cb610475565b5b80604052505050565b60006104df610410565b90506104eb82826104a4565b919050565b600067ffffffffffffffff82111561050b5761050a610475565b5b61051482610464565b9050602081019050919050565b82818337600083830152505050565b600061054361053e846104f0565b6104d5565b90508281526020810184848401111561055f5761055e61045f565b5b61056a848285610521565b509392505050565b600082601f8301126105875761058661045a565b5b8135610597848260208601610530565b91505092915050565b6000806000606084860312156105b9576105b861041a565b5b60006105c786828701610445565b935050602084013567ffffffffffffffff8111156105e8576105e761041f565b5b6105f486828701610572565b925050604061060586828701610445565b9150509250925092565b61061881610424565b82525050565b6000602082019050610633600083018461060f565b92915050565b60006020828403121561064f5761064e61041a565b5b600061065d84828501610445565b91505092915050565b600081519050919050565b600082825260208201905092915050565b60005b838110156106a0578082015181840152602081019050610685565b838111156106af576000848401525b50505050565b60006106c082610666565b6106ca8185610671565b93506106da818560208601610682565b6106e381610464565b840191505092915050565b6000602082019050818103600083015261070881846106b5565b905092915050565b6000604082019050818103600083015261072a81856106b5565b9050610739602083018461060f565b9392505050565b7f496e76616c696420636c61737300000000000000000000000000000000000000600082015250565b6000610776600d83610671565b915061078182610740565b602082019050919050565b600060208201905081810360008301526107a581610769565b9050919050565b7f526f6c6c206e756d626572206e6f7420617661696c61626c6500000000000000600082015250565b60006107e2601983610671565b91506107ed826107ac565b602082019050919050565b60006020820190508181036000830152610811816107d5565b9050919050565b7f4e487b7100000000000000000000000000000000000000000000000000000000600052602260045260246000fd5b6000600282049050600182168061085f57607f821691505b6020821081141561087357610872610818565b5b5091905056fea26469706673582212201f708b4f0d72e4a96f463826c0315dd28c452e205a600e9275bbac91a6cecbe864736f6c634300080b0033",
  "immutableReferences": {},
  "source": "contract AttendanceRegister {\r\n    struct Student{\r\n            string name;\r\n            uint class;\r\n        }\r\n\r\n    event Added(string name, uint class);\r\n\r\n    mapping(uint => Student) public register; // roll number => student details\r\n\r\n    function add(uint rollNumber, string memory name, uint class) public returns (uint256){\r\n        require(class > 0 && class <= 12, \"Invalid class\");\r\n        require(register[rollNumber].class == 0, \"Roll number not available\");\r\n        Student memory s = Student(name, class);\r\n        register[rollNumber] = s;\r\n        emit Added(name, class);\r\n        return rollNumber;\r\n    }\r\n    \r\n    function getStudentName(uint rollNumber) public view returns (string memory) {\r\n        return register[rollNumber].name;\r\n    }\r\n}",
  "sourcePath": "C:\\Users\\LENOVO\\Desktop\\practice\\contracts\\hello.sol",
  "compiler": {
    "name": "solc",
    "version": "0.8.11+commit.d7f03943.Emscripten.clang"
  },
  "schemaVersion": "3.4.4",
  "updatedAt": "2022-01-30T08:43:59.467Z",
  "devdoc": {
    "kind": "dev",
    "methods": {},
    "version": 1
  },
  "userdoc": {
    "kind": "user",
    "methods": {},
    "version": 1
  }
}