{
  "contractName": "HelloWorld",
  "abi": [
    {
      "inputs": [
        {
          "internalType": "uint256",
          "name": "",
          "type": "uint256"
        }
      ],
      "name": "names",
      "outputs": [
        {
          "internalType": "string",
          "name": "",
          "type": "string"
        }
      ],
      "stateMutability": "view",
      "type": "function"
    },
    {
      "inputs": [
        {
          "internalType": "string",
          "name": "_name",
          "type": "string"
        }
      ],
      "name": "addName",
      "outputs": [],
      "stateMutability": "nonpayable",
      "type": "function"
    }
  ],
  "bytecode": "0x608060405234801561001057600080fd5b5061055c806100206000396000f3fe608060405234801561001057600080fd5b50600436106100365760003560e01c806311456b471461003b5780634622ab0314610057575b600080fd5b6100556004803603810190610050919061036f565b610087565b005b610071600480360381019061006c91906103ee565b6100c6565b60405161007e91906104a3565b60405180910390f35b6000819080600181540180825580915050600190039060005260206000200160009091909190915090805190602001906100c2929190610172565b5050565b600081815481106100d657600080fd5b9060005260206000200160009150905080546100f1906104f4565b80601f016020809104026020016040519081016040528092919081815260200182805461011d906104f4565b801561016a5780601f1061013f5761010080835404028352916020019161016a565b820191906000526020600020905b81548152906001019060200180831161014d57829003601f168201915b505050505081565b82805461017e906104f4565b90600052602060002090601f0160209004810192826101a057600085556101e7565b82601f106101b957805160ff19168380011785556101e7565b828001600101855582156101e7579182015b828111156101e65782518255916020019190600101906101cb565b5b5090506101f491906101f8565b5090565b5b808211156102115760008160009055506001016101f9565b5090565b6000604051905090565b600080fd5b600080fd5b600080fd5b600080fd5b6000601f19601f8301169050919050565b7f4e487b7100000000000000000000000000000000000000000000000000000000600052604160045260246000fd5b61027c82610233565b810181811067ffffffffffffffff8211171561029b5761029a610244565b5b80604052505050565b60006102ae610215565b90506102ba8282610273565b919050565b600067ffffffffffffffff8211156102da576102d9610244565b5b6102e382610233565b9050602081019050919050565b82818337600083830152505050565b600061031261030d846102bf565b6102a4565b90508281526020810184848401111561032e5761032d61022e565b5b6103398482856102f0565b509392505050565b600082601f83011261035657610355610229565b5b81356103668482602086016102ff565b91505092915050565b6000602082840312156103855761038461021f565b5b600082013567ffffffffffffffff8111156103a3576103a2610224565b5b6103af84828501610341565b91505092915050565b6000819050919050565b6103cb816103b8565b81146103d657600080fd5b50565b6000813590506103e8816103c2565b92915050565b6000602082840312156104045761040361021f565b5b6000610412848285016103d9565b91505092915050565b600081519050919050565b600082825260208201905092915050565b60005b8381101561045557808201518184015260208101905061043a565b83811115610464576000848401525b50505050565b60006104758261041b565b61047f8185610426565b935061048f818560208601610437565b61049881610233565b840191505092915050565b600060208201905081810360008301526104bd818461046a565b905092915050565b7f4e487b7100000000000000000000000000000000000000000000000000000000600052602260045260246000fd5b6000600282049050600182168061050c57607f821691505b602082108114156105205761051f6104c5565b5b5091905056fea26469706673582212206fa9a1e44be684ab1389a092d2edee16ee6ad83b1534a406bada6789b729112c64736f6c634300080b0033",
  "immutableReferences": {},
  "source": "// SPDX-License-Identifier: MIT\r\npragma solidity ^0.8.11;\r\n\r\ncontract HelloWorld {\r\n\r\n  string[] public names;\r\n\r\n  function addName(string memory _name) public {\r\n     names.push(_name);\r\n  }\r\n}\r\n",
  "sourcePath": "C:\\Users\\LENOVO\\Desktop\\practice\\contracts\\hello.sol",
  "compiler": {
    "name": "solc",
    "version": "0.8.11+commit.d7f03943.Emscripten.clang"
  },
  "schemaVersion": "3.4.4",
  "updatedAt": "2022-01-29T12:35:04.341Z",
  "devdoc": {
    "kind": "dev",
    "methods": {},
    "version": 1
  },
  "userdoc": {
    "kind": "user",
    "methods": {},
    "version": 1
  }
}